:100000000C942A000C9447000C9447000C94470071
:100010000C9447000C9447000C9447000C94470044
:100020000C9447000C9447000C9447000C94470034
:100030000C9447000C9447000C9447000C94470024
:100040000C9447000C9447000C9447000C94470014
:100050000C94470011241FBECFE5D8E0DEBFCDBF12
:1000600012E0A0E6B0E0E2EFF2E102C005900D92EE
:10007000AC30B107D9F722E0ACE0B2E001C01D928C
:10008000A932B207E1F70E9489010C9477090C9418
:100090000000FC010FB6F8946091250270912602D1
:1000A00080912702909128020FBE309721F0608343
:1000B00071838283938308950F931F93CF93DF936C
:1000C00014BA15BA03E010E0E801C81BD90B061BEF
:1000D000170B602F84E390E00E947905602F85E381
:1000E00090E00E948505CC5F6C2F84E390E00E9435
:1000F00085056C2F85E390E00E9479058AE090E009
:100100000E9466056C2F83E390E00E9492058111A6
:1001100007C08AE090E00E94660581E090E002C09E
:1001200080E090E0DF91CF911F910F9108950F93A0
:100130001F93CF93DF9300E010E018C0BE01C80109
:100140000E945C00892B49F0C801880F991F880F15
:10015000991F8C0F9D1F01960EC0219602C0C0E012
:10016000D0E0C430D10554F30F5F1F4F04301105A8
:10017000B4F380E090E0DF91CF911F910F9108954B
:10018000CF93DF930E949700892BE1F30E949700A1
:10019000EC0185E090E00E94660504C085E090E0F7
:1001A0000E9466050E949700892BC1F7C153DF4F5B
:1001B0008881DF91CF910895CF93DF930E949700BC
:1001C000EC0185E090E00E946605C153DF4F888115
:1001D000DF91CF910895882321F088B3816088BB97
:1001E00003C088B38E7F88BB88B3826088BB11BA96
:1001F00080B388B3846088BB00000000000011BA9F
:1002000080B398B39B7F98BB0895662321F098B381
:10021000916098BB03C098B39E7F98BB98B39D7FB5
:1002200098BB82BB8FEF81BB88B3846088BB000022
:100230000000000088B38B7F88BB0895CF93DF93C5
:10024000C82FD62F80E00E94EB008823DCF36D2FAF
:100250008C2F0E940501DF91CF91089587B38160B3
:1002600087BB87B3826087BB87B3846087BB80E12D
:1002700090E00E94660560E080E30E94050185E051
:1002800090E00E94660560E080E30E94050181E045
:1002900090E00E94660560E08CE30E941E0160E031
:1002A0008CE00E941E0160E086E00E941E0160E07A
:1002B00081E00E941E01089560E081E00E941E011D
:1002C0000895CF93DF93C62F98E2899FC00D112424
:1002D00060E082E00E941E0105C060E084E10E94AF
:1002E0001E01CD2FDFEFDC0FC111F7CFDF91CF91D2
:1002F0000895CF93DF93FC0104C061E00E941E01CA
:10030000FE01EF01219680818111F7CFDF91CF911E
:1003100008950E94620580E090E0089580910C02AB
:10032000811104C081E080930C02089510920C02A8
:10033000089580932402089580912402109224024B
:1003400008950E94C0000E9499010895AC0120E028
:1003500030E003C010822F5F3F4FFA01E20FF31F1E
:1003600090819111F7CF0895DF92EF92FF920F9352
:100370001F93CF93DF93CDB7DEB761970FB6F89495
:10038000DEBF0FBECDBFD82E7B010E945C0160E0B6
:1003900080E00E94610180EE90E00E94790160E0BF
:1003A00081E00E94610188EE93E00E946605C7012A
:1003B0000E94A60100E010E010C00E9411066FE04C
:1003C00070E00E949D05D701A00FB11FFC01E35012
:1003D000FE4F80818C930F5F1F4F8D2D90E008178B
:1003E00019075CF3FF92EF9286EF90E09F938F9353
:1003F0008E010F5F1F4F1F930F930E942A06C801A3
:100400000E94790180ED97E00E9466050F900F90A1
:100410000F900F900F900F9061960FB6F894DEBF7B
:100420000FBECDBFDF91CF911F910F91FF90EF9045
:10043000DF90089520E030E006C0FC01E20FF31FDA
:1004400010822F5F3F4F462F50E024173507ACF343
:1004500008950F931F93CF93DF938C010E945C014B
:1004600060E080E00E94610183E091E00E947901F8
:1004700060E081E00E94610188EE93E00E946605E1
:100480006BE0C8010E941A0218C00E94A1010E94DC
:100490009C01833291F0F801EC0FFD1F808360E036
:1004A00081E00E946101C8010E947901219602C089
:1004B000C0E0D0E0CA30D10544F3F8018081882340
:1004C000B9F388EE93E00E946605DF91CF911F910A
:1004D0000F910895809123028F5F809323020895E6
:1004E0001092230208950F931F93CF93DF938C01F3
:1004F0000E945C0160E080E00E94610182E191E085
:100500000E94790160E081E00E94610188EE93E041
:100510000E946605F801108218C00E94A1010E9485
:100520009C01833291F0F801EC0FFD1F808360E0A5
:1005300081E00E946101C8010E947901219602C0F8
:10054000C0E0D0E0CA30D10544F3F80180818823AF
:10055000B9F388EE93E00E946605DF91CF911F9179
:100560000F910895EF92FF920F931F93CF93DF9314
:10057000CDB7DEB7E3970FB6F894DEBF0FBECDBFA1
:100580001F928AE28F9382E291E09F938F93CE0134
:1005900001969F938F930E942A060E945C0160E05F
:1005A00080E00E9461018EE291E00E94790188EE74
:1005B00093E00E9466050F900F900F900F900F90A0
:1005C0000F9010E045C00E945C0160E080E00E9456
:1005D00061011F9284E48F9388E391E09F938F934E
:1005E0007E0183E2E80EF11CFF92EF920E942A0640
:1005F0001F9281E38F9388E491E09F938F938E0104
:100600000E5E1F4F1F930F930E942A06C7010E9480
:10061000790160E081E00E946101C8010E947901D6
:100620000E94A1010E949C01182F0FB6F894DEBF12
:100630000FBECDBF113339F0143451F488E192E08C
:100640000E94290205C06DE072E084E00E94B401BE
:100650001A3209F0B8CF0E948E01E3960FB6F894D3
:10066000DEBF0FBECDBFDF91CF911F910F91FF90E5
:10067000EF90089580916400813019F41092640025
:10068000089581E08093640008950E942E0188E11E
:1006900092E00E94290281E080936400109223027C
:1006A00080930C0280E090E00E9449000E941606B0
:1006B00008950F931F93CF93DF93CDB7DEB7C8573D
:1006C000D1090FB6F894DEBF0FBECDBF0E945C010A
:1006D00060E080E00E94610184E591E00E94790180
:1006E00080916B0090916C009A838983FE01339610
:1006F00082E6DF011D928A95E9F7CE0101960E94FC
:10070000730268E172E0CE0101960E9421068C011D
:1007100080910D02882361F06DE072E0CE010196B8
:100720000E94210621E0892B09F020E0822F01C0E0
:1007300080E0012B71F40E9470020E945C0160E075
:1007400080E00E94610182E691E00E94790181E0EF
:1007500042C0813099F40E9470020E945C0160E006
:1007600080E00E94610182E691E00E9479016BE0E5
:100770008DE092E00E941A0281E02DC00E945C018F
:1007800060E080E00E94610182E791E00E947901CF
:1007900060E081E00E9461010E946A028091230270
:1007A0001F928F938FE791E09F938F938E010B5948
:1007B0001F4F1F930F930E942A06C8010E947901C0
:1007C00080ED97E00E9466050F900F900F900F90BC
:1007D0000F900F9080E0C858DF4F0FB6F894DEBF3F
:1007E0000FBECDBFDF91CF911F910F9108950F9351
:1007F0001F93CF93DF938C010E945C0160E080E047
:100800000E9461018EE891E00E94790160E081E040
:100810000E94610188EE93E00E946605F801108253
:1008200018C00E94A1010E949C01833291F0F8013E
:10083000EC0FFD1F808360E081E00E946101C80130
:100840000E947901219602C0C0E0D0E0CA30D105F3
:1008500044F3F80180818823B9F388EE93E00E9485
:100860006605DF91CF911F910F9108950F931F930C
:10087000CF93DF93CDB7DEB7C456D1090FB6F89446
:10088000DEBF0FBECDBF0E945C0160E080E00E9431
:1008900061018EE991E00E94790180916B00909155
:1008A0006C009A838983FE01339682E6DF011D92F4
:1008B0008A95E9F7CE0101960E94F70365E670E09C
:1008C000CE0101960E9421068C0160E081E00E9429
:1008D0006101012B51F40E9470020E943A038CEADC
:1008E00091E00E94790181E005C08CEB91E00E94CB
:1008F000790180E0CC59DF4F0FB6F894DEBF0FBE10
:10090000CDBFDF91CF911F910F910895EF92FF928C
:100910000F931F93CF93DF93CDB7DEB72A970FB610
:10092000F894DEBF0FBECDBF0E945C0160E080E0A6
:100930000E9461018EEC91E00E94790160E081E00B
:100940000E9461010CE310E02AC00E94DC008332A7
:1009500031F40E943604882311F081E028C060E061
:1009600081E00E9461011F930F9389ED91E09F93B5
:100970008F93CE0101967C019F938F930E942A064C
:10098000C7010E94790183EE93E00E946605015041
:1009900011090F900F900F900F900F900F9010165D
:1009A00011069CF20E9470020E943A0380E02A968F
:1009B0000FB6F894DEBF0FBECDBFDF91CF911F9170
:1009C0000F91FF90EF900895DF92EF92FF920F93B7
:1009D0001F93CF93DF93CDB7DEB76E970FB6F89422
:1009E000DEBF0FBECDBFD12C4EC00E945C011F9256
:1009F0008AE28F9384EE91E09F938F938E01005F44
:100A00001F4F1F930F930E942A061F9283E28F931A
:100A100080EF91E09F938F939E012F5F3F4F79016D
:100A20003F932F930E942A0660E080E00E946101BC
:100A3000C8010E94790160E081E00E946101C70164
:100A40000E9479010E94A1010E949C010FB6F894B6
:100A5000DEBF0FBECDBF833261F08A3269F40E94DF
:100A60005903D82E80912302833031F40E943A0337
:100A700003C00E943604D82E80912302833019F4DB
:100A80000E948604D82EDD2009F4AFCF0E948E018B
:100A90006E960FB6F894DEBF0FBECDBFDF91CF913B
:100AA0001F910F91FF90EF90DF90089580910C02BD
:100AB000813019F40E94B202F9CF8111F7CF0E9460
:100AC000E404F4CF0E9445030E94560523E023BFAF
:100AD00009C083E882BF88B7816088BF08B600FE7E
:100AE000FDCFC9019C0121503109892B91F713BE1B
:100AF0000895FC01408121E030E002C0220F331F45
:100B00006A95E2F7242B20830895FC01908121E06F
:100B100030E002C0220F331F6A95E2F720952923A7
:100B20002083089521E030E002C0220F331F6A9530
:100B3000E2F7FC0180818223089597FB072E16F4CB
:100B4000009407D077FD09D00E94B10507FC05D0BD
:100B50003EF4909581959F4F0895709561957F4FD4
:100B60000895AA1BBB1B51E107C0AA1FBB1FA617F4
:100B7000B70710F0A61BB70B881F991F5A95A9F746
:100B800080959095BC01CD0108958F929F92AF9270
:100B9000BF92CF92DF92EF92FF92CF93DF93EC015F
:100BA000688179818A819B81611571058105910533
:100BB00021F464E279ED8BE597E02DE133EF41E03C
:100BC00050E00E94DD0849015A019B01AC01A7EAEF
:100BD000B1E40E94FC086B017C01ACEEB4EFA5010E
:100BE00094010E940A09DC01CB018C0D9D1DAE1DF4
:100BF000BF1DB7FF03C00197A109B048888399833F
:100C0000AA83BB839F77DF91CF91FF90EF90DF9016
:100C1000CF90BF90AF909F908F9008950E94C50590
:100C2000089580E690E00E94C5050895A0E0B0E038
:100C30008093600090936100A0936200B093630082
:100C40000895FB01DC018D91019080190110D9F309
:100C5000990B0895AEE0B0E0E0E3F6E00C941D09D6
:100C60000D891E8986E08C831A8309838FEF9FE7A5
:100C70009E838D83AE01475E5F4F6F89788DCE0175
:100C800001960E944C06EF81F885E00FF11F10825B
:100C90002E96E4E00C943909ABE0B0E0E2E5F6E032
:100CA0000C940F096C017B018A01FC0117821682EA
:100CB000838181FFCCC1CE0101963C01F601938175
:100CC000F70193FD859193FF81917F01882309F4BA
:100CD000BAC1853239F493FD859193FF81917F01EB
:100CE000853229F4B60190E00E944308E7CF912CA9
:100CF000212C312CFFE1F315D8F08B3279F038F448
:100D0000803279F08332A1F4232D20611DC08D3211
:100D100061F0803369F4232D216016C0832D826039
:100D2000382EE32DE4603E2E2AC0F32DF8601DC05E
:100D300037FC2DC020ED280F2A3040F08E32B9F458
:100D400036FC81C1232D2064322E19C036FE06C028
:100D50008AE0989E200D1124922E11C0EAE02E9E6A
:100D6000200D1124222EF32DF0623F2E08C08C3668
:100D700021F4832D8068382E02C0883641F4F701B3
:100D800093FD859193FF81917F018111B3CF982FBE
:100D90009F7D9554933028F40C5F1F4F9FE39983F8
:100DA0000DC0833631F0833771F0833509F059C0B7
:100DB00021C0F801808189830E5F1F4F88248394AE
:100DC000912C530113C02801F2E04F0E511CF80181
:100DD000A080B18036FE03C0692D70E002C06FEFC5
:100DE0007FEFC5010E9438084C018201F32DFF7787
:100DF0003F2E16C0280122E0420E511CF801A080AF
:100E0000B18036FE03C0692D70E002C06FEF7FEF46
:100E1000C5010E942D084C01F32DF0683F2E820180
:100E200033FC1BC0822D90E088169906B0F4B60101
:100E300080E290E00E9443082A94F4CFF50137FC49
:100E4000859137FE81915F01B60190E00E944308D1
:100E500021102A9421E0821A91088114910471F7DB
:100E6000E8C0843611F0893641F5F80137FE07C035
:100E700060817181828193810C5F1F4F08C0608106
:100E80007181072E000C880B990B0E5F1F4FF32DFD
:100E9000FF763F2E97FF09C09095809570956195DC
:100EA0007F4F8F4F9F4FF0683F2E2AE030E0A30125
:100EB0000E947F08882E861845C0853731F4232D7F
:100EC0002F7EB22E2AE030E025C0932D997FB92ED7
:100ED0008F36C1F018F4883579F0B5C0803719F035
:100EE000883721F0B0C0E92FE061BE2EB4FE0DC0FE
:100EF000FB2DF460BF2E09C034FE0AC0292F2660E6
:100F0000B22E06C028E030E005C020E130E002C08B
:100F100020E132E0F801B7FE07C060817181828173
:100F200093810C5F1F4F06C06081718180E090E06B
:100F30000E5F1F4FA3010E947F08882E8618FB2D8D
:100F4000FF773F2E36FE0DC0232D2E7FA22E891453
:100F500058F434FE0BC032FC09C0832D8E7EA82EBF
:100F600005C0B82CA32C03C0B82C01C0B92CA4FE1A
:100F70000FC0FE01E80DF11D8081803321F49A2D10
:100F8000997EA92E09C0A2FE06C0B394B39404C0F2
:100F90008A2D867809F0B394A3FC11C0A0FE06C088
:100FA000B21488F4280C922C9B180EC0B21460F472
:100FB000B60180E290E00E944308B394F7CFB214E8
:100FC00018F42B1802C0982C212CA4FE10C0B601D6
:100FD00080E390E00E944308A2FE17C0A1FC03C07A
:100FE00088E790E002C088E590E0B6010CC08A2D49
:100FF000867859F0A1FE02C08BE201C080E2A7FC16
:101000008DE2B60190E00E944308891438F4B601DD
:1010100080E390E00E9443089A94F7CF8A94F3010A
:10102000E80DF11D8081B60190E00E944308811017
:10103000F5CF222009F442CEB60180E290E00E9472
:1010400043082A94F6CFF6018681978102C08FEF7C
:101050009FEF2B96E2E10C942B09FC010590615067
:1010600070400110D8F7809590958E0F9F1F0895BE
:10107000FC016150704001900110D8F78095909567
:101080008E0F9F1F08950F931F93CF93DF93FB0144
:10109000238121FD03C08FEF9FEF2CC022FF16C0DC
:1010A00046815781248135814217530744F4A0813A
:1010B000B1819D012F5F3F4F318320838C93268127
:1010C00037812F5F3F4F3783268314C08B01EC019C
:1010D000FB010084F185E02D0995892BE1F6D8010B
:1010E00016968D919C911797019617969C938E93C7
:1010F0001697CE01DF91CF911F910F910895FA01BC
:10110000AA27283051F1203181F1E8946F936E7F46
:101110006E5F7F4F8F4F9F4FAF4FB1E03ED0B4E037
:101120003CD0670F781F891F9A1FA11D680F791F78
:101130008A1F911DA11D6A0F711D811D911DA11D89
:1011400020D009F468943F912AE0269F1124301999
:10115000305D3193DEF6CF010895462F4770405D34
:101160004193B3E00FD0C9F7F6CF462F4F70405DE3
:101170004A3318F0495D31FD4052419302D0A9F73E
:10118000EACFB4E0A6959795879577956795BA9538
:10119000C9F700976105710508959B01AC010A2EFE
:1011A00006945795479537952795BA95C9F7620FD5
:1011B000731F841F951FA01D0895052E97FB1EF415
:1011C00000940E94F40857FD07D00E94460907FCCE
:1011D00003D04EF40C94F408509540953095219529
:1011E0003F4F4F4F5F4F0895909580957095619553
:1011F0007F4F8F4F9F4F08950E946809A59F900DC4
:10120000B49F900DA49F800D911D11240895B7FFE8
:101210000C94FC080E94FC08821B930B08952F92EB
:101220003F924F925F926F927F928F929F92AF9276
:10123000BF92CF92DF92EF92FF920F931F93CF93C3
:10124000DF93CDB7DEB7CA1BDB0B0FB6F894DEBF5A
:101250000FBECDBF09942A88398848885F846E8480
:101260007D848C849B84AA84B984C884DF80EE80CA
:10127000FD800C811B81AA81B981CE0FD11D0FB6D3
:10128000F894DEBF0FBECDBFED010895A1E21A2E86
:10129000AA1BBB1BFD010DC0AA1FBB1FEE1FFF1F1A
:1012A000A217B307E407F50720F0A21BB30BE40B6A
:1012B000F50B661F771F881F991F1A9469F76095B1
:1012C0007095809590959B01AC01BD01CF0108956B
:1012D000A29FB001B39FC001A39F700D811D112477
:1012E000911DB29F700D811D1124911D0895F894D8
:0212F000FFCF2E
:1012F20001000000014142434400000000000000E0
:1013020000000000000000000000000000000000DB
:1013120000000000000000000000000000000000CB
:1013220000000000000000000000000000000000BB
:1013320000000000000000000000000000000000AB
:10134200000000000000000000000000000000009B
:10135200000000000000000000000000000000008B
:101362003132334134353642373839432A30234417
:101372004F6E652074696D652070617373776F724B
:10138200642067656E004E657720707377643A203B
:101392002573005365742070617373776F72643ABA
:1013A2002000526567756C6172206C6F67696E3AD6
:1013B20020002563203D206C6F676F7574004C6FB1
:1013C2006767656420696E002563203D206368615C
:1013D2006E676520707764002563203D203120749C
:1013E200696D6500526567756C6172204C6F676943
:1013F2006E004C6F67696E20537563636573667523
:101402006C004C6F67696E206661696C65640046AA
:1014120061696C656420436E743A202564004D61F5
:101422006E61676572206C6F67696E3A20004D616C
:101432006E61676572204C6F67696E004C6F6769F9
:101442006E2073756363657366756C004C6F6769B4
:101452006E20756E73756363657366756C004C6F91
:10146200636B6564206F7574004C6566743A202561
:10147200303264002563203D206C6F6720696E0066
:101482002563203D206D616E6167657200313233E4
:0C1492004134353642373839432A3044A3
:00000001FF
